:100000000C941A010C9437010C9437010C943701AD
:100010000C9437010C9437010C9437010C94370180
:100020000C9437010C9437010C94501A0C94241B37
:100030000C9475150C9437010C9437010C9437010E
:100040000C9437010C9437010C9437010C94370150
:100050000C9437010C94FC150C9437010C94370167
:100060000C9437010C9437010C9437010C94370130
:100070000C9437010C9437010C9437010C94370120
:100080000C9437010C9437010C9437010C94370110
:100090000C9437010C9437010C9437010C94370100
:1000A0000C9437010C9437010C9437015000520026
:1000B00051004F0022037000310036003800630009
:1000C0006F006C006F006E002F006B00610073000A
:1000D00061006E00650000001203680061006300AB
:1000E0006800690038003600380000000403090485
:1000F00009023B00020100A0FA090400000103010B
:1001000001000921110100012240000705810308B7
:100110000001090401000103000000092111010090
:100120000122B6000705820320000112010002002F
:10013000000008EDFE0000000101020001050109B8
:1001400002A10185020901A100050919012908156B
:100150000025019508750181020501093009311555
:1001600081257F95027508810609381581257F95BF
:100170000175088106050C0A38021581257F950155
:1001800075088106C0C005010980A1018503190118
:100190002AB700150126B700950175108100C0052A
:1001A0000C0901A101850419012AA002150126A04C
:1001B00002950175108100C005010906A10185069F
:1001C000050719E029E71500250195087501810249
:1001D0000507190029EF1500250195F07501810229
:1001E0000508190129059505750191029501750309
:1001F0009101C005010906A101050719E029E715CC
:100200000025019508750181029501750881010598
:1002100007190029FF150026FF00950675088100C3
:1002200005081901290595057501910295017503C8
:100230009101C00011241FBECFEFDAE0DEBFCDBFB9
:1002400011E0A0E0B1E0E2E9FBE302C005900D920D
:10025000A038B107D9F722E0A0E8B1E001C01D92B3
:10026000AE36B207E1F70E949B0F0C94881D0C94E8
:100270000000811111C0623078F4423068F4E62F3A
:10028000F0E0EE0FFF1FE40FF11DEE0FFF1FE4552E
:10029000FF4F85919491089580E090E008950E9429
:1002A0003901089581E0089581E008950E94540184
:1002B000089508950E9459010895A5E0B0E0E3E68D
:1002C000F1E00C94F41C49835A83309187018981B1
:1002D0009A81311119C0662399F0222389F00E9476
:1002E000F906182F682F89819A810E94D6066981A4
:1002F0007A81812F0E944F0D2596E3E00C94101D0A
:100300000E94E706182FF3CF0E94F90669817A81CF
:10031000F1CFFC01262F408151816281738184815C
:100320000E945D01089581E00895CF93DF93EC0171
:1003300060E00E948901BE010E945A01DF91CF91C5
:1003400008950E94830E08950E94870E08950895CF
:100350000E94A5050E94A7012FEF84E39CE0215095
:1003600080409040E1F700C0000008950E94A8017D
:100370000E94201608950E94A8010E943116089537
:100380000F931F93CF93DF938C0161E00E9489014B
:10039000EC01B8010E945601811106C080E0DF9196
:1003A000CF911F910F910895B801CE010E9496132D
:1003B0008823A1F3B801CE010E942C12882371F387
:1003C000B801CE010E940813882341F3F80182810D
:1003D000882361F0C330FCE7DF07E9F058F4C1156A
:1003E000ECE7DE07A9F0C130DC47B9F0C8010E9494
:1003F0005201D5CFCB358CE7D807A9F0CC35ECE747
:10040000DE0771F0CA35DC4789F70E94FB0AEECFA0
:100410000E94B601C3CF0E94030B0E94BB01BECF56
:100420000E94F10AE3CF0E94FF0AE0CF0E9451151B
:100430000E94400208950E9444020E9456150895A9
:1004400008950E942002089581E008950895CF93B1
:10045000DF93D82F0E942402C82F882319F08D2FF4
:100460000E9426028C2FDF91CF9108950895CF939B
:10047000C82F0E9421028C2F0E942702CF9108953D
:1004800080E00E94370208950E94E4130E94370220
:100490000895CF930E94E413C82F809182018C1796
:1004A00079F0C09382010E94E115609383017093FB
:1004B000840180938501909386018C2F0E943702DE
:1004C000CF910895ABE0B0E0E8E6F2E00C94F51CC3
:1004D0004F83588769877A878B8761110E943C0A0E
:1004E0001E821D8285E0FE013796DE011196019085
:1004F0000D928A95E1F78C819D81892B61F4498168
:100500005A816B817C818D819E810E9465092B9629
:10051000E2E00C94111D89819A8189238F3F79F340
:10052000CE0101960E9493018111E9CFF0CFFC0129
:10053000808191810E942B070895662329F00E94F3
:100540001F100E94F21008950E947910FACFCF93E5
:10055000C82F8823B9F08CEF8C0F813AA8F46C2F48
:1005600080910001909101010E947714882329F065
:100570008C2F0E94FC090E945D0A8C2F0E94F409B6
:100580000E945D0ACF91089580E28C0F883048F474
:10059000C77081E001C0880FCA95EAF70E941F0A60
:1005A000EFCFEBE5EC0FE33040F4F0E0EB5BFE4F18
:1005B000808190E00E941914E5CFE8E5EC0FE93165
:1005C00050F4F0E0EE0FFF1FED5EFE4F8081918151
:1005D0000E943E14D7CF83E38C0F833198F661E0FD
:1005E0008C2F0E949D02CECF882381F19CEF980F23
:1005F000913A28F40E94FC090E945D0A089590E255
:10060000980F983050F4877091E001C0990F8A9547
:10061000EAF7892F0E94250AEFCF9BE5980F9330C8
:1006200028F490E080E00E941914089598E5980F4E
:10063000993128F490E080E00E943E14089593E3FD
:10064000980F933118F460E00E949D0208951F9363
:10065000CF93DF93182FEB010E94A702209739F464
:10066000812F0E94F402DF91CF911F9108958FE9AD
:100670009FE00197F1F700C000002197EFCF70E0F5
:1006800060E0893311F460E570E00E94270308956B
:10069000882321F00E941F0A0E945D0A0895882382
:1006A00021F00E94250A0E945D0A0895B0E0A0E0B2
:1006B000ECE5F3E00C94EE1C6C01D62FC72FFC0187
:1006C0001281F580F2949FE0F9220E94150AE82E2B
:1006D0008823B9F0E12E1123A1F08C2F807F803484
:1006E00021F080E28D0F8830D0F08091580282FF97
:1006F00016C082E00E94C00A0E94150A91E0E82E0E
:10070000E926BC2EB2948FE0B822FBE0FB1508F47A
:1007100068C0EB2DF0E0E657F24E0C94DF1CE12CA4
:10072000F0CF0C2F0F70C07F11F00295007F1123C6
:1007300099F0002359F080E28D0F883010F0D1112C
:1007400007C0802F0E941F0A0E945D0A8D2F41C0A2
:10075000802F0E942F0AF8CF8D2F0E94F4020023D1
:1007600009F43FC080E28D0F883010F0D11104C031
:10077000802F0E94250A03C0802F0E94350A0E9404
:100780005D0A2FC00C2F0F70C07FC03211F0029590
:10079000007FDD2381F0D13009F468C0112309F412
:1007A00072C0FF2009F468C0F601858180FFCECFBA
:1007B0008F70858361C08091580282FD33C0112300
:1007C00059F0002329F0802F0E941F0A0E945D0A21
:1007D00080E00E94A70205C080E00E94F40201119F
:1007E000C7CFEB2DE850FF0B349720F40E94E413A1
:1007F0000E943702EE2089F00E94110A80FD0DC090
:10080000F60112820E940B0A0E943406C6010E9461
:1008100065050E940B0A0E944406CDB7DEB7E9E0E9
:100820000C940A1D112389F0F11006C00E943F0AA2
:10083000802B0E944803D5CF21E0F212F7CF0E940F
:100840003F0A802B0E94460ACCCFF11006C00E94BE
:10085000530A802F0E944F03C4CF31E0F31609F2F0
:10086000802F0E944F030E94530ABBCF112331F007
:1008700085E08F1508F4B5CF802FDBCF94E09F156E
:1008800008F4AFCFE6CFFF2021F3D93349F4FFEFCF
:1008900027EE33E0F15020403040E1F700C0000087
:1008A0008D2F0E94F4029DCF8C2F869586958370A4
:1008B00069F0813009F095CF8D2F9C2F9370111125
:1008C00002C080E090E00E943E148BCF8D2F9C2FC1
:1008D0009370111102C080E090E00E94191481CF42
:1008E000612F8D2F0E949D027CCF8C2F8370A1F5EC
:1008F000111177CF4D2F429546954770440F440F05
:100900002D2F2F7030E0042E02C0220F331F0A94C7
:10091000E2F790E080E0D4FF09C08FE090E002C0F1
:10092000880F991F4A95E2F780959095C695C695D0
:10093000C370822B932BC23049F058F4C13019F0A8
:100940000E9404064ECF0E94FB054BCF0E940D066D
:1009500048CF0E94F80545CF8695112311F08C2FC2
:100960008170882309F43DCF4D2F429546954770FD
:10097000440F440F2D2F2F7030E0042E02C0220FA1
:10098000331F0A94E2F790E080E0D4FF09C08FE0C3
:1009900090E002C0880F991F4A95E2F780959095E4
:1009A000C695C695C370822B932BC23049F058F47C
:1009B000C13019F00E946F0614CF0E94660611CF55
:1009C0000E9478060ECF0E941C060BCFCF70112319
:1009D00029F08C2F0E9434068D2F2BCF8D2F0E9453
:1009E0004F038C2F0E944406FCCED23F51F160F49D
:1009F000D03FB9F0D13F81F0112309F449C0F11083
:100A0000A5CE8C2F8F7121C0D33F11F1D43FA1F718
:100A10008091580282FD26C08C2F8F71112311F313
:100A200014C0112349F084E08F1508F4DACE8C2F1E
:100A30008F710E945606D5CE95E09F1508F4D1CE51
:100A4000F6CF8C2F8F711111CDCF0E943406C9CEF5
:100A5000112329F08C2F8F710E942806C2CE0E948C
:100A60002306BFCE112349F0CF718C2F0E9434068C
:100A700063E08C2F0E94A20AB4CE81E00E94C00ADB
:100A8000E1E0EF1508F0ADCE82E00E94C00AA9CEE9
:100A9000F110FBCE8C2F8F71A5CF0F931F93CF93A7
:100AA000DF93EC01688179818A810E9436078C018D
:100AB0000E9481060E94F705B801CE010E945603EC
:100AC000DF91CF911F910F910895CF93DF93EC01A8
:100AD0008B819C81892B29F08881998189238F3F83
:100AE00051F4DF91CF910895CE010E944D05CE01C2
:100AF0000E949501F6CFCE010E94C0018111F4CF72
:100B00000E94150A882369F38A81882351F3809112
:100B1000580282FFE6CF82E00E94C00AE2CF90E056
:100B200080E00E94191490E080E00E943E140E9430
:100B30003C0A0E945D0A0E940E110E94F210089564
:100B40000E94040A0E948F0508950E942C0A0E94A8
:100B5000A005089592959F70963091F058F4925F99
:100B60009F70923058F4803F19F030F4883E30F492
:100B700081E008959A5FF4CF843FD1F380E0089537
:100B8000883EB0F3813FD1F7F3CFFC01838194819C
:100B9000892B29F08081918189238F3F11F480E096
:100BA0000895808191810E942B070E94AA050895D3
:100BB000A5E0B0E0EEEDF5E00C94F51C2596E2E042
:100BC0000C94111DA6E0B0E0E8EEF5E00C94F51CE5
:100BD0002696E2E00C94111D08950E94EC050895FC
:100BE0000E94ED0590938F0180938E0108950895E2
:100BF0000E94F005089520918E0130918F01822B83
:100C0000932B0E94F005089520918E0130918F0161
:100C1000822393230E94F005089520918E01309144
:100C20008F01822793270E94F00508950E94EC050A
:100C300008950E94160608950E94190690938D014A
:100C400080938C01089590E080E00E941C06089536
:100C500021E030E0A90102C0440F551F8A95E2F758
:100C6000CA010E941C06089521E030E002C0220F54
:100C7000331F8A95E2F780918C0190918D01822B30
:100C8000932B0E941C06089521E030E002C0220F41
:100C9000331F8A95E2F72095309580918C019091D1
:100CA0008D01822393230E941C06089521E030E0E9
:100CB00002C0220F331F8A95E2F780918C01909138
:100CC0008D01822793270E941C06089520918C0194
:100CD00030918D01822B932B0E941C060895209148
:100CE0008C0130918D01822393230E941C0608956C
:100CF00020918C0130918D01822793270E941C0640
:100D000008950895262F277091E001C0990F2A9524
:100D1000EAF723E0769567952A95E1F7660F771F46
:100D2000660F771FFA01E60FF71F50E040E0682FCB
:100D300070E08191DF0111979B01042E02C036956E
:100D400027950A94E2F7217021952827292328273F
:100D50002C934F5F5F4F4430510559F70895A82FEA
:100D6000A77023E0969587952A95E1F7880F991F3C
:100D7000880F991FFB01E80FF91F50E040E080E069
:100D8000219130E00A2E02C0369527950A94E2F7A9
:100D900021703327042E01C0220F0A94EAF7822B18
:100DA0004F5F5F4F4430510559F70895262F923019
:100DB00068F4823058F4692F70E0660F771F680F6F
:100DC000711D48E851E0822F0E94820608959230FA
:100DD00070F4823060F4292F30E0220F331F68E86E
:100DE00071E0820F932F911D0E94AF06089580E05D
:100DF0000895B0E0A0E0EFEFF6E00C94EE1C7C016B
:100E000000918C0110918D0180918E0190918F0144
:100E1000082B192BCFE0D0E0CC24C394D12CBC2ECE
:100E2000C6010C2E02C0880F991F0A94E2F7802396
:100E30009123892B49F4219790F7B12C8B2DCDB7B5
:100E4000DEB7E9E00C940A1DB7018C2F0E945B0D00
:100E5000019789F3F3CFCF93DF93EC010E94F9065A
:100E6000BE010E945B0DDF91CF9108951F93CF9338
:100E7000DF93EB0190918701992339F0CB010E9418
:100E80002B07DF91CF911F910895882369F0CB0143
:100E90000E94F906182F682FCE010E94D606BE01C7
:100EA000812F0E945B0DEDCFCB010E94E706182F2A
:100EB000F6CF1F93CF93DF93C091900116E08091FE
:100EC00091018C1304C0DF91CF911F910895D0E060
:100ED0001C9FF0011D9FF00D1124EE56FE4F408126
:100EE000518162817381848195810E94E2052196FE
:100EF000C770E5CF4091C2015091C3016091C40118
:100F00007091C5018091C6019091C7010E94E205D0
:100F100008951F93CF93DF938091C701807F09F0DD
:100F200049C08091C401882309F444C08091900194
:100F3000C09191016091C2017091C301A091C5015E
:100F4000B091C601D62FD72316E0C81799F190E0CB
:100F5000109711F0DF3F19F401968770F6CF189FB4
:100F60009001199F300D1124F901EE56FE4F418179
:100F70004713F2CF40814613EFCF42814111ECCFAE
:100F8000438154814A1B5B0B483C510528F78091F3
:100F9000C7018F7080618093C701F901E956FE4F48
:100FA00080818F708061808382EC91E00E94650572
:100FB0000E945907DF91CF911F910895A1E1B0E000
:100FC000E4EEF7E00C94ED1C8C0185E0F801DE0105
:100FD0001D9601900D928A95E1F7F801E28082EC6E
:100FE000C82E81E0D82E6091C5017091C6016115AF
:100FF000710509F44EC19091C2012091C301892F5E
:1010000082238F3F09F445C140815181A380B48080
:10101000F090C401F501E61BF70BFF2009F4EAC0CC
:101020008091C701382F307FE83CF10508F0A3C05C
:1010300031116DC0FE2C251316C0941314C0E1109D
:1010400012C08F7080618093C7010E947A07C60129
:101050000E9465058091C701F80185838F2D6196F7
:10106000EAE00C94091DA114B10429F0842F852312
:101070008F3F09F027C180E0F82FF170DF2E80FF4D
:101080003CC0809190012091910136E0821315C0FF
:101090004D875E878D859E850E942B07292F22957F
:1010A0002F702230F0F0243018F59F70F1F0F80125
:1010B0009581907FD1F4D12C1EC090E0389FF00133
:1010C000399FF00D1124EE56FE4F6181651306C065
:1010D0006081641303C06281E6120FC001968770BD
:1010E000D5CF9F7011F0882331F3805E883018F3DC
:1010F000C8010E946505FD2CB1CFEE2009F4AECFEA
:101100008091C70181608093C701F12CA7CF25137F
:1011100006C0941304C0F801EE2009F487C0C8018A
:101120000E94C505882319F1EE2009F18091C701BD
:10113000803270F02091C2013091C30138872F8333
:101140001986BB86AA868C87CE0107960E94650504
:1011500086E0F801A2ECB1E001900D928A95E1F7EA
:101160000E9489070E947A07FF24F39477CFC80171
:101170000E946505F9CF311113C07A2DB98AA88A6A
:101180006E2D89890E94D80582EC91E00E94650548
:1011900086E0F60111928A95E9F70E947A07B5CFA9
:1011A00025130FC094130DC0E1100BC0F801858307
:1011B000C8010E94650586E0F60111928A95E9F75B
:1011C0004DCFC8010E94C505882389F2EE2079F22F
:1011D0008091C701803208F4BBCF2091C2013091C9
:1011E000C3013A8329831B82BD82AC828E83CE01E8
:1011F0000196ACCFE83CF10508F03EC0FE2CEE2095
:1012000009F4B5CF25132AC0941328C08091C701D3
:1012100080FD1BC0982F907FC1F0F8018583903F1F
:1012200031F0982F907F905F8F70892B8583C80154
:101230000E94650586E0F801A2ECB1E001900D92F4
:101240008A95E1F70E947A0709CF86E0F801A2ECBF
:10125000B1E001900D928A95E1F700CFC8010E949C
:10126000C505811175CF8091C70181608093C70149
:10127000C8010E946505F2CE7A2DB98AA88A6E2D22
:1012800089890E94D80586E0F60111928A95E9F7CE
:10129000D9CFEE2009F46BCFC8010E94C505F82E06
:1012A000882309F464CF86E0F801A2ECB1E0019054
:1012B0000D928A95E1F782EC91E00E9497020E94DC
:1012C0008907C0CF81E08E25D7CEACE0B0E0EBE659
:1012D000F9E00C94F41C4F83588769877A878B87D1
:1012E0009C87CE0107960E94DE07882369F08A85D5
:1012F0009B85892B39F04F815885842F85238F3F1B
:1013000009F06BC016E05FC086E0FE013796DE0193
:10131000119601900D928A95E1F78A859B85892B1C
:1013200089F38F81988589238F3F61F32091910103
:1013300030E0C901019687709927409190014817C4
:10134000190671F40E94A505109291011092900166
:1013500086E0E2ECF1E0DF011D928A95E9F7D2CF59
:1013600096E0929FD001939FB00D1124AE56BE4FD0
:10137000FE01319601900D929A95E1F780939101CB
:101380000E945907BFCF819FC00111248E569E4FE6
:101390000E94DE078823E9F0E09190011E9FF00192
:1013A0001124EE56FE4F4081518162817381848108
:1013B00095810E94E2058091900190E001968770EE
:1013C00099278093900180919001909191018913C8
:1013D000DACF2C96E3E00C94101D69857A858B8515
:1013E0009C850E94E2058ECF682F8091000190912C
:1013F00001010E94F7140895682F809100019091D7
:1014000001010E940515089580910001909101014C
:101410000E94131508958091E8018595859585951D
:1014200008958091E801877008959091E801977080
:1014300081E009F480E0089580910B020895909175
:101440000B02892B80930B020895809590910B02DB
:10145000982390930B02089510920B020895909197
:101460000A02892B80930A020895809590910A02BE
:10147000982390930A02089510920A020895809189
:10148000E901089508950E94420A08959091580232
:1014900092FF08C09091E901981721F08093E9012B
:1014A0000E94430A08958091E901882329F010924F
:1014B000E90180E00E94430A0895CF93DF93E09111
:1014C0000001F091010180910B028083E091000105
:1014D000F0910101808190910A02892B8083909183
:1014E000E901992381F0E0910001F09101018081EF
:1014F000892B808380910001909101010E946314E7
:1015000081110E94530AC0910001D091010140E273
:1015100050E068EC71E0CE010E94301D892B59F03B
:1015200080E2FE01A8ECB1E001900D928A95E1F70E
:10153000CE010E94F113DF91CF91089508950E948A
:101540009E0A08959091580292FF11C098E0899FD9
:1015500090011124622B6093E8010E94340680916F
:10156000E8018595859585950E949F0A08950E94BA
:10157000340608951092E80180E00E949F0A0895C1
:101580009091E801809589238093E801282F2770A6
:1015900091F4282F082E000C330B9217130659F0E4
:1015A0009091580292FF07C08595859585950E9478
:1015B00044060E94BA0A08959091580292FB22278D
:1015C00020F9281769F080FB92F9909358028091D6
:1015D0005702909158020E94240B82E00E94C00A98
:1015E00008958091580282FB882780F991E089272D
:1015F0000E94DC0A089581E00E94DC0A089580E0E0
:101600000E94DC0A08956FEF7FEF90E080E00E9477
:10161000721D089590E080E00E944E1D21E0873EFB
:101620009E4F09F020E0822F089582E090E00E9412
:10163000461D089583E090E00E94461D089584E0D1
:1016400090E00E944E1D0895BC0184E090E00E944D
:10165000721D0895AB01BC018FE090E00E94661DF1
:101660000895AB01BC0183E190E00E94661D0895DE
:1016700060E070E0CB010E94310B089560E070E003
:10168000CB010E942A0B0E94380B089567EE7EEF73
:1016900090E080E00E94721D60E082E090E00E9495
:1016A000541D60E083E090E00E94541D10928F0171
:1016B00010928E0160E074E184E090E00E94721D5F
:1016C00060E086E090E00E94541D6FEF87E090E0BC
:1016D0000E94541D40E050E0BA0188E090E00E9472
:1016E000661D60E08DE090E00E94541D40E050E0F7
:1016F000BA0188E190E00E94661D60E087E190E019
:101700000E94541D40E050E0BA018CE190E00E943C
:10171000661D70E060E080E290E00E94721D40E093
:1017200050E0BA0188E190E00E94661D0E943E0BE5
:1017300008950E94460B0895682F8EE090E00E9465
:10174000541D08950E94E1156093140270931502D0
:101750008093160290931702609310027093110207
:1017600080931202909313020895089508950E94A1
:10177000B60B089508950E94BA0B089585E49EE083
:101780000E94DA130E94B50B0E94B70B089581E006
:1017900008950E94C70B0895089508950E94CC0BE8
:1017A0000E94CD0B08950E94640E0E943602089597
:1017B0000E94CC150E94090F0E94D30B0E94BB0B04
:1017C0000895AAE0B0E0E7EEFBE00C94ED1C0E9467
:1017D000190F10910E0280E00E948A0E18132DC07E
:1017E00010910F0281E00E948A0E181326C00E94F9
:1017F000D5158C0180910C0290910D0208171907E4
:10180000A1F08FEF89838A831B820E94D5158160A6
:10181000782F9D838C8349815A816B818D810E94B1
:10182000620210930D0200930C020E9430110E947C
:1018300049022A96EAE00C94091D8091180281FD64
:101840000E94900E0E94C90BA82E8EE0C82E82E046
:10185000D82E10E0812F0E948A0E082FF601819168
:101860006F01081729F1E02EE826B12CFF24F3942C
:101870008E2D8F21B1F0AA20A1F0BE821F8391E0AE
:10188000802F8F2109F490E098870E94D515816000
:10189000782F9A8789874E815F8168858A850E9423
:1018A0006202FF0CF1E0BF120AC0F601319700831B
:1018B000113019F40E94A20BB8CF11E0CBCFBB249A
:1018C000B394D6CFCF93DF930E94600DEC018115C6
:1018D00020E59207D0F5811530E4930708F086C023
:1018E000803E910518F58D3C910508F07DC0883A41
:1018F000910570F4853A910508F06EC0813091052C
:1019000001F10097F1F00497E0F4D0E0C0E019C0D5
:10191000813C9105D0F7C85AD0E0CC0FDD1FC85BE1
:10192000DE4F0990D881C02DD4640BC08115904240
:1019300008F0A8C0C11581E0D80718F4C83ED10549
:1019400020F7CE01DF91CF910895803622E59207EE
:1019500010F5803432E5930708F052C0803292458A
:1019600008F047C0C11582E5D80708F47DC02C2FC8
:101970002695269540E2249F900111248C2F837098
:10198000C1E0D0E002C0CC0FDD1F8A95E2F7C22B88
:10199000D32BDD68D6CF803A22E5920760F48038F9
:1019A00032E5930708F441C0CF71D0E0DC2FCC279B
:1019B000C46FD06AC6CF803C42E5940708F449C0A2
:1019C000C03E82E5D80708F0A0CFDC2FCC27CC277B
:1019D000DF71C06FD06AB5CFC55AD0E0C658DE4FB0
:1019E000C881D0E0D064ADCFD065ABCFDF70D06A16
:1019F000A8CFCF71D0E0DC2FCC27C16FD06AA1CFA8
:101A0000282F26952695277080E2289F9001112483
:101A10008C2F8370C1E0D0E002C0CC0FDD1F8A950F
:101A2000E2F7C22BD32BDC688CCF282F2695269586
:101A3000277040E2249F900111248370C1E0D0E020
:101A400002C0CC0FDD1F8A95E2F7C22BD32BDA68D8
:101A500078CF8F710E94020EC82FD0E0DC2FCC27E8
:101A6000CC27DF71D0626DCF8C2F8F710E94020E58
:101A700035E0D695C7953A95E1F7CF709C2FEC01EC
:101A8000D0695FCF8D2F8F710E94020E90E0982F4A
:101A9000882788279F719C012C2BE901E3CF462FD3
:101AA000723030F4623020F4672F0E944F010895A5
:101AB00090E080E008950E944F0D0E94620C08950E
:101AC00082389105B9F1B0F48133910509F47DC0F4
:101AD00048F48932910509F46DC08A32910509F400
:101AE0007BC008958533910509F45FC08933910562
:101AF00009F10895833E9105D9F138F4803E9105AE
:101B000029F1823E910579F10895863E9105D9F13A
:101B1000873E910509F43EC0843E910541F5209130
:101B2000580221FF24C08091570284FD19C087EE1E
:101B300090E0089520915702237009F05AC0209137
:101B4000580223FF14C089E290E0089520915702C3
:101B500020FD38C03091580230FF09C024FF43C037
:101B600090E080E008952091570222FDF7CF08957C
:101B70002091570222FD3AC03091580230FD39C001
:101B800024FFF5CFEDCF2091570223FFF0CF24FDA6
:101B9000E7CFCDCF2091570223FD2EC030915802C0
:101BA00031FFEECF84EE90E008952091570225FF9B
:101BB000DECFC9CF2091570225FD21C020915802C8
:101BC00023FFD5CF89E390E0D2CF2091570226FFA3
:101BD000CECF8AE290E008952091570226FFC7CF2A
:101BE00081E390E0089583EE90E0089582EE90E026
:101BF000089580EE90E0089586EE90E0089585E3E4
:101C000090E008959091570292FF06C0282F287106
:101C10002830F9F4877F846093FF06C0282F28714D
:101C20002831F1F4877E84612091580220FF06C09C
:101C3000382F38713830D9F4877F816021FF06C092
:101C4000282F28712831D1F4877E816194FD877E09
:101C50000895282F24712430F9F68B7F8860DCCF1B
:101C6000282F2471243101F78B7E8861DDCF382F36
:101C70003171313019F78E7F8860E0CF282F2171C4
:101C8000213121F78E7E8861E1CF80E008950E94A6
:101C9000030B08950E94190F2FEF86E791E0215062
:101CA00080409040E1F700C000000E94190F80E0E2
:101CB0000E948A0E80FF04C00E94470E0E942016D8
:101CC00008950E944A0E08950E940A0B811102C0D5
:101CD0000E94990B0E94150B809318020E941F0B03
:101CE00090935802809357020E94610E0E941A0B33
:101CF00090E00E94F80580918C0190918D010E94E6
:101D00001906089508950E94820E089508950E946C
:101D1000860E0895E82FF0E0E55AFD4F8081089582
:101D2000089580EA8A95F1F7089500C008950E9409
:101D3000910E0895F894E82FE295EF70F0E031A14C
:101D4000282F2F7081E090E001C0880F2A95EAF7D4
:101D5000982F9095932391A392A1892B82A3789495
:101D6000089586EC0E949A0E86E30E949A0E85E3FF
:101D70000E949A0E86E60E949A0E0895B0E0A0E0B6
:101D8000E4ECFEE00C94EF1CEC01C62E062F10E0F4
:101D9000C80183589E4F7C01FC0180818F3F91F1E7
:101DA000F894E82FE295EF70F0E091A18F7021E0B8
:101DB00030E001C0220F8A95EAF7892F822B81A398
:101DC00082A12095282322A378940E94950ED3B057
:101DD000D5FA882780F9DD24D394D826369917C000
:101DE00082E0D82AF70180818F3F11F00E949A0E7D
:101DF00061E0D11001C060E08C2D0E94970EC00FF1
:101E0000D11FD882CDB7DEB7E8E00C940B1D80E07F
:101E1000E8CF0E94B10E10925C0210925B02109209
:101E20005A021092590282E00E944F0F0E94A101B3
:101E30000895A2E0B0E0EFE1FFE00C94F41C1A82F8
:101E4000198260E0CE0101960E94BE0E61E0CE01D3
:101E500001960E94BE0E42E050E0BE016F5F7F4FD0
:101E600089E592E00E94301D21E0009709F420E00E
:101E7000892B31F089819A8190935A02809359027B
:101E800042E06BE572E089E592E00E94500F182F66
:101E90000E94A401812F2296E3E00C94101D089566
:101EA000CF92DF92EF92FF920F931F93CF936C012B
:101EB0007B01042F222349F081E080931B020E94C2
:101EC000D51590931A0280931902C0911B02C1117B
:101ED0000AC0C0E08C2FCF911F910F91FF90EF901F
:101EE000DF90CF9008958091190290911A020E947C
:101EF000ED15059770F310E0A801B601C7010E9427
:101F0000301D892B41F0A801B601C7010E943D1D7B
:101F100010921B02DFCFC0E0FBCF0E94A6170E94E9
:101F2000D80B0E94B31708950E94B8170E94E10BC6
:101F30000E94D21708950E946E150E948C170E946D
:101F4000BE0B0E948D0F0E94940F0E94CE0BFBCF00
:101F50008091220280FF0DC06091070170E0660F42
:101F6000771F6038710570F56115710569F1862F6D
:101F7000089581FF07C06091070184E0689FB00168
:101F80001124EFCF6091070182FD0AC080912102E8
:101F90008823A9F02091060160910701821710F0B3
:101FA00088E0ECCF869FC001112433E0880F991F91
:101FB0003A95E1F7622F70E00E94CB1CD2CF68E027
:101FC00070E0D5CF8FE7089581E0089580912202D7
:101FD00080FF0CC06091030170E075956795759561
:101FE00067956115710549F1862F089581FF06C037
:101FF0006091030170E075956795F3CF60910301DF
:1020000082FD0BC0909120029923A1F06091020102
:1020100080910301961738F0682F70E060387105E1
:1020200000F38FE70895899FC001112470E00E949A
:10203000CB1CF4CF61E070E0D7CF81E008958D3CF8
:1020400031F40E94A80F81958093260208958E3C5A
:1020500019F40E94A80FF8CF8F3C31F40E94A80F0A
:102060008195809325020895803D19F40E94A80F60
:10207000F8CF893D29F40E94E60F80932702089546
:102080008A3D21F40E94E60F8195F7CF8B3D31F414
:102090000E94E60F81958093280208958C3D19F4E3
:1020A0000E94E60FF8CF9FE2980F983070F4815DA0
:1020B000990B21E030E001C0220F8A95EAF7809168
:1020C0002402822B8093240208958D3D31F4809167
:1020D000220281608093220208958E3D21F4809136
:1020E00022028260F7CF8F3DB9F78091220284608F
:1020F000F1CF409125028D3C59F48091260287FF53
:102100000DC01092260241110BC01092210208C08E
:102110008E3C81F48091260218169CF3442381F0B2
:102120008091270290912802892B09F05AC01092C1
:10213000200208958F3C49F447FFF0CF109225020A
:10214000809126028111ECCFE0CF803D19F4141666
:10215000ACF3E4CF90912702893D29F41916F4F6E7
:1021600010922702DBCF8A3D19F497FFD7CFF8CF23
:10217000909128028B3D29F497FFD0CF109228022E
:10218000CDCF8C3D19F41916CCF3C8CF9FE2980F30
:10219000983090F4815D990B21E030E0B90102C0E4
:1021A000660F771F8A95E2F7CB0180959091240204
:1021B000892380932402B2CF8D3D31F48091220295
:1021C0008E7F80932202AACF8E3D21F4809122023D
:1021D0008D7FF7CF8F3D09F0A1CF809122028B7FB9
:1021E000F0CF08950E94D5159C0190912502809111
:1021F0002602982B21F030931F0220931E0290910B
:10220000270280912802982B21F030931D02209301
:102210001C0283E292E00E940B14089586E0E3E240
:10222000F2E0DF011D928A95E9F7109221021092E7
:102230002002109222020895FC01828181110EC0B9
:10224000838181110BC08481811108C091E0858157
:10225000811101C090E0892F8170089581E0FCCF49
:10226000A6E0B0E0E6E3F1E10C94F41C86E0E3E2E2
:10227000F2E0DE01119601900D928A95E1F710923D
:1022800025021092260210922702109228028B81BA
:102290009C81892B89F080911E0290911F020E94DF
:1022A000ED15AC01909121029923C9F180910801AB
:1022B0008417150608F440C08D819E81892B91F00A
:1022C00080911C0290911D020E94ED15AC0190912D
:1022D0002002992309F471C0809104018417150626
:1022E00008F479C0BE016F5F7F4F83E292E00E94E5
:1022F0002515811105C083E292E00E941C11811115
:102300000E94F21086E0FE013196A3E2B2E0019055
:102310000D928A95E1F72696E3E00C94101D20912A
:1023200009018AE0289F900111242417350720F61F
:102330009F5F9093210202C09F3FD1F71B81112321
:1023400059F00E94A80F9FEF11160CF491E0899F9D
:10235000802D1124809325021C81112359F00E94A5
:10236000A80F9FEF11160CF491E0899F802D112486
:102370008093260230912502332309F49DCF2091CA
:102380002602222309F498CF45EB3403C00111241F
:10239000992359F09093250245EB240390011124D1
:1023A000332339F03093260287CF81E080932502D2
:1023B000F3CF81E0809326027FCF209105018AE050
:1023C000289F900111242417350708F08BCF9F5FB9
:1023D0009093200202C09F3FD1F71D81112359F035
:1023E0000E94E60F9FEF11160CF491E0899F802D5B
:1023F0001124809327021E81112359F00E94E60FB9
:102400009FEF11160CF491E0899F802D1124809389
:10241000280230912702332309F464CF2091280247
:10242000222309F45FCF45EB3403C0011124992323
:1024300059F09093270245EB240390011124332394
:1024400039F0309328024ECF81E080932702F3CFFA
:1024500081E08093280246CFCF93DF93EC01FB010C
:102460008281882309F4D2C09E013057233231057E
:1024700008F0B2C00E941F0B90935802809357023D
:10248000FE01E150F047E232F10520F4EA56F24E47
:102490000C94DF1C8091570281608093570293C097
:1024A000809158028860809358028DC080915702B5
:1024B0008260F3CF809157028460EFCF8091570202
:1024C0008860EBCF809158028160EDCF80915802F7
:1024D0008260E9CF809157028061DFCF80915702FF
:1024E0008062DBCF809157028064D7CF0E94A50520
:1024F000809157028068D1CF809157028C60CDCFF8
:10250000809158028360CFCF809157028E7FC5CFD4
:1025100080915802877FC7CF809157028D7FBDCFB2
:10252000809157028B7FB9CF80915702877FB5CFBB
:10253000809158028E7FB7CF809158028D7FB3CFA4
:10254000809157028F7EA9CF809157028F7DA5CFB2
:10255000809157028F7BA1CF0E94A50580915702E1
:102560008F779BCF80915702837F97CF80915802BE
:102570008C7F99CF8091570282FB992790F921E0B7
:10258000922790FB82F990FB83F987CF80915802C4
:10259000982F909591708E7F892B90FB81F983CF36
:1025A00090915702892F8F7B96FF806476CF0E948F
:1025B000A50590915702892F97FB87F980586DCF19
:1025C00081E00E949C0B80915702909158020E94DA
:1025D000240B0E94A50580E0DF91CF91089580E053
:1025E000F0CF90915702892F8F7E94FF806155CF55
:1025F00090915702892F8E7F90FF81604ECF9091EE
:102600005802892F877F93FF88604DCF81E0E4CF08
:10261000CF93DF93EB0186319C4711F50E941C0A92
:102620009A81992399F08A7A91E009F490E0909345
:102630002902811109C089E20E94F4090E945D0A01
:1026400080E0DF91CF91089585E3F6CF8091290254
:10265000811104C089E20E94FC09F0CF85E3FBCF21
:1026600081E0EFCF0F931F93CF93DF93C42FD22F2F
:10267000FC0182818823C9F040932C020E94D51569
:1026800090932B0280932A0280E28C0F883040F4D2
:10269000C77081E001C0880FCA95EAF70E9448031D
:1026A000DF91CF911F910F91089510912C02141377
:1026B00032C080912A0290912B020E94ED15883C35
:1026C000910548F5C0E2CD0F1D17B9F080E2810FEA
:1026D000883040F4177081E001C0880F1A95EAF73E
:1026E0000E944F03C83048F481E09D2F977001C0CD
:1026F000880F9A95EAF70E944803802F0E943F03B3
:10270000C83070F6D77081E001C0880FDA95EAF71B
:102710000E944F03C5CF80E28C0F883008F6C77047
:1027200081E001C0880FCA95EAF7F2CF0F93DB0171
:1027300088519C4787309105A0F5FC01E854F24E82
:102740000C94DF1C06E221EE41EE6AE17CE7CD014C
:102750000E94321380E00F91089507E225EE45EEC6
:102760006BE17CE7F4CF06E221EE40EE68E17CE726
:10277000EECF07E225EE44EE69E17CE7E8CF06E222
:1027800021EE42EE6CE17CE7E2CF07E225EE46EE79
:102790006DE17CE7DCCF08E221E045EE6EE17CE70D
:1027A000D6CF12968C91882319F010922C02D3CF99
:1027B00081E0D1CF9093810180938001089590931F
:1027C0003202809331020895E0913102F091320299
:1027D000309729F00190F081E02D0995089580E06F
:1027E0000895E0913102F0913202309799F02091F2
:1027F0001201222359F02091570227FF07C0DC0164
:102800002C9111962C93119726E02C930280F38142
:10281000E02D09950895E0913102F0913202309750
:1028200039F022E0DC012C930480F581E02D09953C
:102830000895A3E0B0E0EFE1F4E10C94F51C2091E1
:102840002F023091300228173907A1F090933002FF
:1028500080932F02E0913102F0913202309751F0D3
:1028600023E029839B838A830680F781E02DCE01B4
:10287000019609952396E2E00C94111DA3E0B0E0C7
:10288000E4E4F4E10C94F51C20912D0230912E0229
:1028900028173907A1F090932E0280932D02E09122
:1028A0003102F0913202309751F024E029839B836A
:1028B0008A830680F781E02DCE0101960995239643
:1028C000E2E00C94111DFC013296809112018823E4
:1028D00021F0809157029EE187FF96E080E09150C1
:1028E00008F4089521912223D1F38F5FF8CF662356
:1028F00001F1209112012223F1F02091570227FFCC
:102900001AC0462F4695469546954E3190F467700D
:1029100021E030E002C0220F331F6A95E2F7840FF6
:10292000911DFC01828190E02823392381E0232B33
:1029300069F480E00895FC013296089621912617EB
:1029400021F0E817F907D1F7F4CF81E008959C0151
:10295000FC0132969FEF80E04191461751F09F3F76
:1029600019F4411101C0982F8F5F8630A9F79F3F5E
:1029700009F40895290F311D97FD3A95F9016283F5
:102980000895FC01329608962191261303C0DF01B9
:1029900011971C92E817F907B9F70895E62FE69505
:1029A000E695E695EE3168F4E80FF92FF11D6770B2
:1029B00021E030E001C0220F6A95EAF78281822B84
:1029C00082830895E62FE695E695E695EE3170F45C
:1029D000E80FF92FF11D677021E030E001C0220FF0
:1029E0006A95EAF720958281282322830895209111
:1029F0001201222339F02091570227FF03C00E94C1
:102A0000CE1408950E94A714089520911201222344
:102A100039F02091570227FF03C00E94E214089565
:102A20000E94C1140895FC013296809112018823FE
:102A300051F08091570287FF06C08EE1DF011D92A1
:102A40008A95E9F7089586E0F9CF46E050E00E94C4
:102A5000301D21E0892B09F420E0822F089508958C
:102A60000E942F150895811106C081E080933302E2
:102A70000E943015089582E0F9CF83E080933302FD
:102A80000E94301508950E943315089581E08093C7
:102A900033020E94301508950E9446150895089546
:102AA00008950E9450150895089508950E944F15A5
:102AB00008950E9454150E94190F0E94551580E038
:102AC0000E948A0E91E0811107C081E00E948A0E67
:102AD00091E0811101C090E0892F089585B7806849
:102AE00085BF85B7806885BF08951F921FB61F9266
:102AF00011248F939F93AF93BF93809134028111E0
:102B000013C080915D0290915E02A0915F02B0912E
:102B100060024196A11DB11D80935D0290935E02FB
:102B2000A0935F02B0936002BF91AF919F918F918C
:102B30001F901FBE1F90189580916502843031F15F
:102B40000E9416021092340288E190E020E40FB651
:102B5000F894A895809360000FBE2093600083B71F
:102B6000817F846083BF83B7816083BF78948895B9
:102B700083B78E7F83BF0FB6F894A89580916000CD
:102B8000886180936000109260000FBE08950E94DB
:102B9000A5050E941B02089582E084BD93E095BDC7
:102BA0009AEF97BD80936E0008952FB7F8948091A7
:102BB0005D0290915E02A0915F02B09160022FBF12
:102BC00008952FB7F89460915D0270915E02809134
:102BD0005F02909160022FBF08959C014FB7F89457
:102BE00080915D0290915E02A0915F02B0916002BF
:102BF0004FBF821B930B089578941F921FB61F92AC
:102C000011248F939F93AF93BF9380915D02909116
:102C10005E02A0915F02B09160020196A11DB11DFC
:102C200080935D0290935E02A0935F02B093600276
:102C3000BF91AF919F918F911F901FBE1F901895CC
:102C400087E797E7909301088093000888E19AE06E
:102C50000FB6F894A895809360000FBE9093600023
:102C6000FFCF88E19AE00FB6F894A89580936000B2
:102C70000FBE90936000FFCF8091550208959B0195
:102C8000BA01909165029430E9F48F708093E90065
:102C90009FEF8091E800915085FD06C085ED8A95F3
:102CA000F1F700009111F5CF8091E80085FF0AC08F
:102CB00050E040E0C9010E9444188091E8008E77FE
:102CC0008093E800089543E050E0BC0182E00E9458
:102CD0003F16089546E050E0BC0182E00E943F1696
:102CE0000895CF93DF93EC0180911201811111C0FF
:102CF00048E050E0BE0181E00E943F1680E2FE0104
:102D0000A5E3B2E001900D928A95E1F7DF91CF91B2
:102D100008958091570287FF05C040E282E050E0AD
:102D2000BE01EACF48E081E0FACF809164028111D0
:102D300009C00E94D4190E94311A8091E200846077
:102D40008093E20008951092640208950E9446154F
:102D500008956091610281E0611101C080E00E94EC
:102D60003D1508959091650281E0943009F080E06E
:102D7000609161020E944315089542E061EC81E098
:102D80000E94501942E261EC82E00E945019909139
:102D9000650281E0943009F080E0609161020E9458
:102DA0003315089580916702833009F461C030F4CF
:102DB0008130D1F1823009F49EC008958A3009F43F
:102DC0008AC08B3009F46FC0893009F050C08091FF
:102DD0006602813209F04BC080916A0290916B02C9
:102DE000029708F044C08091E800877F8093E80054
:102DF0008091E80082FF37C09091F3008091F2004B
:102E0000029731F48091F100813011F0863021F485
:102E10008091F100809355028091E8008B77809338
:102E2000E8000E94841923C080916602813AF9F477
:102E30008091E800877F8093E80080916A029091FA
:102E40006B02892B61F460E285E392E070E00E94FE
:102E500093188091E8008B778093E800089560E0F4
:102E600090E080E0F3CF809165028111C1CF089599
:102E700080916602813AD9F780916A0290916B0243
:102E8000892BA9F78091E800877F8093E8008091E3
:102E9000E80080FFFCCF809112018093F1008091C7
:102EA000E8008E77BCCF80916602813201F7809175
:102EB0006A0290916B02892BD1F68091E800877F9E
:102EC0008093E8000E948419809168028093120127
:102ED0000E94A505089580916602813241F6809195
:102EE000E800877F8093E8000E948419809169023E
:102EF00080935602089580916602813A09F0B7CF17
:102F00008091E800877F8093E8008091E80080FF4F
:102F1000FCCF80915602C1CF84B7877F84BF0FB6A4
:102F2000F894A89580916000886180936000109269
:102F300060000FBE80E890E00FB6F89480936100C7
:102F4000909361000FBE0E944C1508950E94D41901
:102F50000E94311AE2EEF0E08081846080837894F0
:102F60000E94B01C08958AE091E00E94DF1308954A
:102F700080916502853031F480916502853019F0C9
:102F80000E94C71508950E949C15809163028823B2
:102F900099F30E945915882379F30E942E180E94F4
:102FA000A505EACF08950E94D6170895292F332743
:102FB0002330310519F168F42130310509F444C09A
:102FC0002230310509F445C090E080E030E020E097
:102FD00025C02132310549F122323105A9F780E4BB
:102FE00090E023EF31E061157105C1F086EB90E0D0
:102FF0002DE331E06130710589F0E6CF992781300A
:10300000910581F0009729F00297F1F6E4EBF0E0EA
:1030100002C0ECEEF0E0849190E09F01FA01318370
:1030200020830895E8EDF0E0F6CF89E090E022E01B
:1030300031E06115710591F389E090E02BE131E019
:103040006130710559F3C0CF82E190E02BE231E0AD
:10305000E5CF8BE390E020EF30E0E0CF80E189BD69
:1030600082E189BD09B400FEFDCF8091D8008F7D3B
:103070008093D8008091E00082608093E00080918E
:10308000E00081FDFCCF0895AF92BF92CF92DF9216
:10309000FF920F931F93CF93DF936C01EB018A0193
:1030A0000E94A319F82E811123C00115110539F0D2
:1030B000F80180819181C81BD90BC80ED91EB12C93
:1030C000A12C2097A9F08091E80085FD22C0809175
:1030D000E8008E778093E80001151105A1F0F80152
:1030E00080819181A80EB91EB182A08285E0F82E60
:1030F0008F2DDF91CF911F910F91FF90DF90CF9097
:10310000BF90AF9008950E94A3198823D1F2F82EA2
:10311000EFCFF60181916F018093F1002197FFEFCE
:10312000AF1ABF0ACECFFC0180916C0290916D0264
:1031300086179707A0F06115710529F49091E800B2
:103140009E779093E80090E06115710551F491111C
:1031500008C08091E80082FF34C080E00895BC017F
:10316000F2CF809165028823C1F18530C1F1809151
:10317000E80083FD30C08091E80082FDEACF8091B5
:10318000E80080FFE1CF8091F3002091F200382F1A
:103190006115710519F02830310558F091E028309B
:1031A000310509F090E02091E8002E772093E800A7
:1031B000CBCF81918093F100615071092F5F3F4F18
:1031C000E7CF80916502882341F0853041F08091FE
:1031D000E80083FFBECF81E0089582E0089583E098
:1031E0000895FC0180916C0290916D0286179707FB
:1031F000A0F06115710529F48091E8008E77809325
:10320000E80090E06115710551F4911108C08091BA
:10321000E80082FF35C080E00895BC01F2CF8091C4
:1032200065028823C9F18530C9F18091E80083FDEA
:1032300031C08091E80082FDEACF8091E80080FFF4
:10324000E1CF8091F3002091F200382F61157105D4
:1032500019F02830310558F091E02830310509F097
:1032600090E08091E8008E778093E800CBCF849146
:103270008093F1003196615071092F5F3F4FE6CF87
:1032800080916502882341F0853041F08091E8000B
:1032900083FFBDCF81E0089582E0089583E0089523
:1032A000982F973028F08F708093E90081E008957F
:1032B0009093E900242F762F50E0981731F0709109
:1032C000EC002091ED005091F00021FD02C09F5FC5
:1032D000E8CF3091EB003E7F3093EB003091ED0072
:1032E0003D7F3093ED003091EB0031603093EB0087
:1032F0007093EC002093ED005093F0002091EE00CD
:1033000027FDE5CF80E008958091660287FF13C016
:103310008091E80082FF06C08091E8008B7780935F
:10332000E80004C0809165028111F2CF0895809178
:1033300065028823D9F38091E80080FFF8CF80915F
:10334000E8008E77ECCF2091E4003091E50095E61F
:10335000A9012091EC00822F817020FF06C080918E
:10336000E80080FF06C080E008952091E80022FD7B
:103370001AC080916502882389F0853089F0809198
:10338000EB0085FD0FC02091E4003091E50042176D
:103390005307F9F29150E1F684E0089582E0089530
:1033A00083E0089581E008950E94431A0E944B1A19
:1033B000E0EEF0E0808181608083E8EDF0E08081E4
:1033C0008F77808319BCA7EDB0E08C918E7F8C93B2
:1033D00080818F7E80831092640208950F931F93E3
:1033E000CF93DF930E94431A0E944B1AC8EDD0E09E
:1033F00088818F77888388818068888388818F7DA2
:10340000888319BC109265021092610210926302C7
:103410001092620200EE10E0F80180818B7F8083C1
:1034200088818160888342E060E080E00E945019DA
:10343000E1EEF0E080818E7F8083E2EEF0E080813B
:1034400081608083808188608083F80180818E7FA5
:103450008083888180618883DF91CF911F910F9154
:103460000895E8EDF0E080818F7E8083E7EDF0E065
:1034700080818160808384E082BF81E080936402E8
:103480000E94EE190895E8EDF0E080818E7F808340
:103490001092E20008951092DA001092E10008956F
:1034A0001F920F920FB60F9211242F933F934F93B9
:1034B0005F936F937F938F939F93AF93BF93EF939C
:1034C000FF938091E10082FF0BC08091E20082FFB8
:1034D00007C08091E1008B7F8093E1000E94AF1CC8
:1034E0008091DA0080FF19C08091D80080FF15C05C
:1034F0008091DA008E7F8093DA008091D90080FF7E
:1035000096C080E189BD82E189BD09B400FEFDCF8E
:1035100081E0809365020E9495168091E10080FF12
:1035200019C08091E20080FF15C08091E2008E7F7B
:103530008093E2008091E20080618093E2008091BC
:10354000D80080628093D80019BC85E08093650222
:103550000E94A9168091E10084FF2BC08091E200B7
:1035600084FF27C080E189BD82E189BD89B5982F9C
:10357000917080FFFBCF8091D8008F7D8093D80021
:103580008091E1008F7E8093E1008091E2008F7E48
:103590008093E2008091E20081608093E20080915C
:1035A0006102882309F449C084E0809365020E9487
:1035B000B2168091E10083FF29C08091E20083FF71
:1035C00025C08091E100877F8093E10082E08093B5
:1035D0006502109261028091E1008E7F8093E1008C
:1035E0008091E2008E7F8093E2008091E200806112
:1035F0008093E20042E060E080E00E9450198091F8
:10360000F00088608093F0000E94A616FF91EF9171
:10361000BF91AF919F918F917F916F915F914F91EA
:103620003F912F910F900FBE0F901F90189519BCCE
:10363000109265020E94A31670CF8091E30087FD6F
:1036400093E090936502B3CF1F920F920FB60F9243
:1036500011242F933F934F935F936F937F938F9397
:103660009F93AF93BF93CF93DF93EF93FF93D0914B
:10367000E900DF708091EC00C82FC17080FDC0E8C8
:103680001092E9008091F000877F8093F000789499
:103690000E94681B1092E9008091F000886080937E
:1036A000F000CD2BCF70C093E900FF91EF91DF9137
:1036B000CF91BF91AF919F918F917F916F915F91CA
:1036C0004F913F912F910F900FBE0F901F90189523
:1036D000AAE2B0E0EEE6FBE10C94F41C86E692E090
:1036E0002091F100FC012193CF01F2E08E369F077B
:1036F000B9F70E94D2168091E80083FF1EC1809125
:103700006602909167029A3008F017C1E92FF0E045
:10371000E154F24E0C94DF1C803899F0823809F0A5
:103720000CC180916A028F70873008F006C18093C7
:10373000E9008091EB0085FB882780F91092E90071
:1037400006C0809162029091630291118260909113
:10375000E800977F9093E8008093F1001092F100C9
:103760008091E8008E77E5C0882309F4D3C08230C9
:1037700009F0E3C0809168028111D6C080916A028D
:103780008F702FEF280F263008F0D7C08093E90004
:103790002091EB0020FFC8C0933031F48091EB0002
:1037A00080628093EB00C0C09091EB009061909399
:1037B000EB0021E030E001C0220F8A95EAF7209368
:1037C000EA001092EA008091EB008860EACF811154
:1037D000B4C0109168021F778091E3008078812B3C
:1037E0008093E3008091E800877F8093E8000E9447
:1037F00084198091E80080FFFCCF8091E30080680D
:103800008093E30082E0111183E08093650295C00C
:103810008058823008F091C08091680290916902CE
:103820008C3D23E09207A1F583E08A838AE28983B5
:103830004FB7F894DE01139620E03EE051E2E32F0B
:10384000F0E050935700E49120FF03C0E295EF7041
:103850003F5FEF708E2F90E0EA30C0F0C7968D93F7
:103860009D932F5F243159F74FBF8091E800877FE8
:103870008093E8006AE270E0CE0101960E949318FE
:103880008091E8008B778093E80057C0C096E7CF1F
:1038900060916A0270916B02AE014F5F5F4F0E94B0
:1038A000D317BC01892B09F448C09091E800977F99
:1038B0009093E80089819A810E94F118E1CF8038C5
:1038C000E1F58091E800877F8093E80080916102B4
:1038D0008093F10045CF811130C090916802923001
:1038E00060F58091E800877F8093E8009093610203
:1038F0000E94841980916102882311F084E005C040
:103900008091E30087FDFACF81E0809365020E94F9
:10391000BD1613C080916802813079F481E0933044
:1039200009F080E0809363021092E9008091E80042
:10393000877F8093E8000E9484198091E80083FFCC
:103940000AC08091E800877F8093E8008091EB00B7
:1039500080628093EB00AA96E3E00C94101D08951A
:10396000CF93809165028823A1F0C091E900CF70C8
:103970009091EC00892F817090FD80E8C82B109207
:10398000E9008091E80083FD0E94681BCF70C0931E
:10399000E900CF91089597FB072E16F4009407D005
:1039A00077FD09D00E941C1D07FC05D03EF49095C0
:1039B00081959F4F0895709561957F4F0895EE0F03
:1039C000FF1F0590F491E02D09942F923F924F92A2
:1039D0005F926F927F928F929F92AF92BF92CF929F
:1039E000DF92EF92FF920F931F93CF93DF93CDB7A8
:1039F000DEB7CA1BDB0B0FB6F894DEBF0FBECDBF20
:103A000009942A88398848885F846E847D848C84F0
:103A10009B84AA84B984C884DF80EE80FD800C81F9
:103A20001B81AA81B981CE0FD11D0FB6F894DEBFDC
:103A30000FBECDBFED010895AA1BBB1B51E107C00E
:103A4000AA1FBB1FA617B70710F0A61BB70B881F2E
:103A5000991F5A95A9F780959095BC01CD010895BD
:103A6000FB01DC0104C08D910190801921F44150CB
:103A70005040C8F7881B990B0895FB01DC0102C078
:103A800001900D9241505040D8F70895F999FECF1A
:103A900092BD81BDF89A992780B50895A8E1B0E05C
:103AA00042E050E00C947A1D262FF999FECF92BD8A
:103AB00081BDF89A019700B4021639F01FBA20BDF3
:103AC0000FB6F894FA9AF99A0FBE08950396272F25
:103AD0000E94551D0E94541D252F0E94551D242F04
:103AE0000C94551D0196272F0E94551D0C94541DB2
:103AF000DC01CB01FC01F999FECF06C0F2BDE1BDAE
:103B0000F89A319600B40D9241505040B8F708959C
:103B1000F894FFCF91039103C203C20354047004CD
:103B2000F103F1037504E604F504F5048412F812B8
:103B30008C1256125A1290125E129412A0126A122D
:103B4000F1126E12A4127212A812D0127612AC12D6
:103B5000D7127C12B212BA126212981266129C121A
:103B60008012B612C612E012EF1250128812FF1223
:103B7000B313B913A213AD13BF13C513CB138C1B0F
:103B8000B41B9D1CB41B9D1CE71B081C9D1C5F1CCB
:023B90006B1CAC
:103B9200EA01280850011E0A14013C1671166A1621
:103BA200631601E200E900EA00B500B600B700CDF5
:103BB200008301CC008A0192019401210223022494
:103BC200022502260227022A02B300B4006F007007
:103BD200009F01CB01818283E200E900EA00B50087
:103BE200B600B700CD008301CC008A019201940196
:103BF2002102230224022502260227022A02B300FE
:103C0200B4006F0070009F01CB01818283C6360031
:00000001FF
